:100000000A128A11FC2F00308A000408840A820731
:10001000003452346534633465346934763465347D
:0E00200064343A342034253463340A34003416
:100F0600080083160313071387171930990018155D
:100F1600181283120313981783160313981C942F21
:100F2600952F8F2F41308312031399008C1E9C2F0F
:100F36009D2F992F1A08F9007908F700F80177080C
:100F4600F0007808F10001300A128A11B0270A125F
:100F56008A118F2F0A128A110028F5007030F400CA
:100F6600EB2F253076060319B92FBA2FC12F760835
:100F76000A128A1183270A128A11EB2FD12F7408BD
:100F860084000008F6000230F2007208F4077608C2
:100F96000A128A1183270A128A11EB2F0130F507EC
:100FA600FF30750784000A128A1103200A128A117B
:100FB600F600F200F3017308003A0319E32FCA2F73
:100FC6007208003A0319FB2F633A0319C22FCA2F7E
:100FD6000130F507FF30750784000A128A110320D5
:100FE6000A128A11F6007608031DFA2FFB2FB42F7A
:0A0FF600080083010A128A11842FFB
:08400000FF3FFF3FFF3FFF3FC0
:02400E007A3DF9
:00000001FF
