:100000000A128A11FC2F00308A000408840A820731
:100010000034483465346C346C346F3420347234BA
:100020006934743469346B34613420347934653420
:10003000683420346334683461346C34203472346E
:10004000683461342034683420340034203445343A
:100050006E3474346534723420344E3465347734FD
:100060002034563461346C347534653420343D3476
:1000700020340034203452344534443420344C3459
:100080004534443420344F3446344634203400342C
:10009000203452344534443420344C3445344434D0
:0A00A00020344F344E342034003475
:100EA600F000831203130C1E592F5A2F542F70086B
:100EB6009900080083120313981C622F632F652F75
:100EC600181218168C1E682F692F652F1A0808002D
:100ED6008316031307178717181581309900181200
:100EE60083120313981718138316031318139816EF
:100EF6008312031318168B170B17831603138C16FE
:100F06000C160800F200972F720884000A128A1144
:100F160003200A128A110A128A1153270A128A1109
:100F26000130F1007108F207720884000A128A1172
:100F360003200A128A11003A031DA22FA32F872F1E
:100F460008008316031308108312031308100A12ED
:100F56008A116B270A128A1101300A128A11852713
:100F66000A128A110A128A115D270A128A11F300DF
:100F7600F4017308F5007408F6003130750676043E
:100F8600031DC62FC72FDC2F83120313081440300E
:100F96000A128A1185270A128A111E300A128A112C
:100FA60085270A128A110A300A128A1153270A1251
:100FB6008A11303075067604031DE22FE32FB52F14
:100FC60083120313081032300A128A1185270A1277
:100FD6008A111E300A128A1185270A128A110A30CE
:100FE6000A128A1153270A128A11B52F0A128A1178
:0A0FF600002883010A128A11A42FBB
:08400000FF3FFF3FFF3FFF3FC0
:02400E003A3D39
:00000001FF
